:020000040800F2
:100000007004002049010008E1070008D907000832
:10001000DD070008AD0700087109000800000000B6
:1000200000000000000000000000000011080008AF
:10003000B1070008000000000D08000815080008BE
:100040006301000863010008630100086301000800
:1000500063010008630100086301000863010008F0
:1000600063010008630100086301000863010008E0
:1000700063010008630100086301000863010008D0
:1000800063010008630100086301000863010008C0
:1000900063010008630100086301000863010008B0
:1000A00063010008630100086301000863010008A0
:1000B00063010008350900086301000863010008B6
:1000C0006301000863010008630100086301000880
:1000D0006301000863010008630100086301000870
:1000E000B507000863010008630100086301000808
:1000F0006301000863010008630100086301000850
:10010000630100086301000863010008630100083F
:10011000630100086301000863010008630100082F
:10012000630100086301000863010008630100081F
:10013000DFF810D000F028FB00480047B517000892
:10014000AFF300807004002006488047064800474F
:10015000FEE7FEE7FEE7FEE7FEE7FEE7FEE7FEE777
:10016000FEE7FEE71D08000831010008D2B201E0F9
:1001700000F8012B491EFBD270470022F6E710B5AC
:1001800013460A4604461946FFF7F0FF204610BD05
:100190002DE9FE4F804681EA0300C00F0C46009017
:1001A00021F0004123F00045B8EB0200A94105D23F
:1001B0004046214690461C460B46024623F000402E
:1001C000104347D0270DC7F30A00C3F30A5102902A
:1001D000401A019040286BDAC3F3130040F4801BEF
:1001E0000098924620B10023D2EB030A63EB0B0B7D
:1001F00001985946C0F14002504600F0D0F9064639
:100200000D4650465946019A00F0E8F910EB0800F7
:100210006141002487EA115284EAE7731A4340D00F
:10022000009A62B3019A012A4FEA075215DC001BBB
:1002300061EB02014FF0004202EA0752CDE90042B1
:10024000001C41F5801132462B4600F01FFA03B026
:10025000BDE8F08F40462146F9E7001B61EB020143
:10026000001C41F5801300185B412018A2F500170F
:1002700047EB030140EAD570B6196D4111E06D08F6
:100280004FEA360645EAC0754FEA0752001B61EB9C
:100290000201001C41F5801149084FEA30000019A5
:1002A000514132462B4603B0BDE8F04F00F0DFB9B4
:1002B0000098012240000023D0EB020263EBE073C0
:1002C000009821464FEAE074B8EB000061EB0401AE
:1002D000E9E783F000435BE781F0004158E72DE94F
:1002E000FE4F81EA030404F0004421F00041009431
:1002F0004FF0000B23F0004350EA01045ED052EAB5
:1003000003045BD0C3F30A54C1F30A552C44A4F28E
:10031000F3340194A0FB0254C1F3130141F48011A2
:10032000C3F3130343F4801301FB024400FB034EA9
:10033000840A970A44EA815447EA8357A4FB076872
:1003400002958D0A05FB07854FEA932C04FB0C549C
:100350002705029D4FEA065847EA1637B5EB080510
:100360006EEB070C870E920E47EA811742EA831262
:10037000A7FB0201B6EB0B0164EB00042B0D43EA73
:100380000C335E1844EB1C50DA465146E7FB020181
:10039000C5F313044FEA0B3343EA14534FEA043214
:1003A000019C43EA0603A4F10C040294009CCDE9ED
:1003B00000B400F06BF903B0BDE8F08F00200146F7
:1003C000F9E72DE9F04D81EA030404F0004B21F038
:1003D000004514464FF0000A23F0004150EA0502A0
:1003E00020D054EA01021DD0C5F30A570246C5F3D6
:1003F0001303C1F31300C1F30A5640F4801543F40C
:100400008013A7EB0608101BD64608F2FD3873EBE5
:10041000050002D308F1010801E092185B41B8F130
:10042000000F03DA00200146BDE8F08D00204FF4F4
:100430008011064684460EE0171B73EB050705D3B3
:10044000121B63EB050306434CEA010C49084FEA13
:10045000300092185B4150EA0107EDD152EA0300E7
:1004600012D082EA040083EA0501084305D0101B7C
:10047000AB4106D20122002306E000224FF00043E8
:1004800002E06FF0010253101AEB06004CEB08512A
:1004900010EB0A0041EB0B01BDE8F04D00F0E7B8AE
:1004A000C10F80EAE0700844CA079623002100F0DB
:1004B000B0B800F0004230F000400AD0C10D01F5A4
:1004C0006071C0F3160042EA0151C20840071143AF
:1004D000704700200146704701F0004330B421F01E
:1004E000004150EA010206D00A0DA2F56072C1F384
:1004F0001301002A02DC30BC00207047440F44EA9C
:10050000C104C100E01830BC00EBC25000F078B864
:1005100030B50B46014600202022012409E021FAD3
:1005200002F59D4205D303FA02F5491B04FA02F5D0
:100530002844151EA2F10102F1DC30BD2DE9F05F67
:100540000546002092469B46884606468146402442
:100550001BE0284641464746224600F02FF8534606
:100560005A46C01A914110D311461846224600F04F
:1005700016F82D1A67EB01084F462246012000218C
:1005800000F00DF817EB00094E41201EA4F1010404
:10059000DFDC484631462A464346BDE8F09F202A24
:1005A00004DB203A00FA02F1002070479140C2F1CA
:1005B000200320FA03F3194390407047202A04DBFC
:1005C000203A21FA02F00021704721FA02F3D040CC
:1005D000C2F120029140084319467047202A06DBE9
:1005E000CB17203A41FA02F043EAE07306E041FA01
:1005F00002F3D040C2F120029140084319467047EF
:100600000029A8BF7047401C490008BF20F0010026
:10061000704710B4B0FA80FC00FA0CF050EA010404
:1006200004BF10BC704749B1CCF1200421FA04F496
:1006300011FA0CF118BF012121430843A3EB0C016F
:10064000CB1D4FEA00614FEA102042BF002010BCD2
:10065000704700EBC35010440029A4BF10BC704782
:10066000401C490008BF20F0010010BC704710B5C5
:10067000141E73F1000408DA401C41F100019218C5
:100680005B411A4301D120F0010010BD2DE9F04D6E
:1006900092469B4611B1B1FA81F202E0B0FA80F2C3
:1006A00020329046FFF77BFF04460F4640EA0A00DF
:1006B00041EA0B0153465A46084313D0114653EA08
:1006C000010019D0C8F140025046FFF777FF0546F8
:1006D0000E46504659464246FFF761FF084305D093
:1006E000012004E020463946BDE8F08D0020054396
:1006F00046EAE0762C4337430A986305E40AA0EB08
:1007000008000022FD0A44EA47540A3002D50020BE
:100710000146E9E7010510196941DDE908450019BD
:100720006941BDE8F04DA2E7C1F30A52C1F31301DC
:1007300040F2FF3341F480119A4202DA0020014670
:10074000704740F233439A42A2F2334202DC5242F3
:10075000FFF734BFFFF723BF30B5041E71F100046B
:1007600004DB4FF00044404264EB0101141E73F1BE
:10077000000405DB1C464FF00043524263EB0403C8
:10078000994208BF904230BD064C074D06E0E06834
:1007900040F0010394E8070098471034AC42F6D3C8
:1007A000FFF7CAFCB01D0008D01D000800BFFEE71F
:1007B00000BFFEE710B54FF4805000F0BFFE40B11F
:1007C00004480068401C034908604FF4805000F062
:1007D000AFFE10BD0800002000BFFEE700BFFEE72F
:1007E00000BFFEE710B5002807DA0A07140E054A15
:1007F00000F00F031B1FD45403E00A07130E024A34
:10080000135410BD18ED00E000E400E000BFFEE767
:1008100000BFFEE710B500F07FFE10BD1CB54148DB
:10082000006840F001003F49086000BF3D48006893
:1008300000F002000028F9D03A48406800F00C00AF
:10084000082838D100BF0020019002E00198401C28
:10085000019001985028F9D33248406800900098E0
:1008600020F0F0000090009840F0800000902D49AA
:10087000009848600020019002E00198401C01901F
:1008800001985028F9D3274840680090009820F03C
:10089000F0000090009840F09000009021490098EE
:1008A00048600020019002E00198401C01900198EE
:1008B0005028F9D300BF1B48406820F003001949B5
:1008C0004860642000F0BBFC1648006816490840E8
:1008D00014490860084640681449084011494860B6
:1008E00008460068104908400E490860084600683C
:1008F00020F480200860084640680D4908400949F6
:1009000048600846006808490840064908604FF4F6
:100910001F00886001F000F900214FF0006000F036
:1009200063FF1CBD00100240FFFFF6FE0C00FFE855
:10093000FFFF00F710B50121094801F01CF968B16B
:10094000084800680849086001200849087000202C
:10095000044908600121024801F00AF910BD0000B5
:1009600000040040080000200C00002010000020BF
:1009700000BFFEE70FB4054B10B503A9044A029867
:1009800000F0DAF810BC5DF814FB00005515000803
:100990001400002002E008C8121F08C1002AFAD182
:1009A00070477047002001E001C1121F002AFBD1EF
:1009B000704700002DE9FF5F82B00021DDE90430BF
:1009C000020DDDF840B0034318D044F61050A2F2F7
:1009D000FF3242431514119801281FD0A5EB0B00DC
:1009E000401C5FEA000A4FF000064E4FDFF83891D6
:1009F000B046504615D5CAF1000413E01198012401
:100A00004AA3012801D16FEA0B010298119AC0E9AB
:100A10000031C0E9024206B0BDE8F09FCBF1000012
:100A2000DFE704460021404A491842EB0450CDE973
:100A3000001012E0E00707D032463B4640464946E8
:100A4000FFF74DFC8046894632463B461046194624
:100A5000FFF745FC06460F466410002CEAD1DDE99D
:100A60000401DDE90023BAF1000F06DAFFF737FCD5
:100A700042464B46FFF733FC05E0FFF7A2FC424637
:100A80004B46FFF79EFC04460E460022284BFFF71C
:100A900063FE03D84FF0FF30014607E00022254BEC
:100AA00020463146FFF774FBFFF73EFE102409E0B5
:100AB000002C0ADB0A220023FFF740FD039B3032A3
:100AC0001A55641E50EA0102F2D1641C039AC4F163
:100AD00011031444119A012A03D0012208430DD1B5
:100AE0000AE0084304D000204FF0110B119072E788
:100AF000A3EB0B056D1E0DE05B4504DD4FF000021E
:100B000005F1010504E003DA4FF00002A5F101054B
:100B1000002AECD002981199C0E90231C0E90045E1
:100B200079E70000000014400000F03F30000000B2
:100B30000000F0430000E03F2DE9FF4F95B09A46DA
:100B4000884606460025EEE1252877D10024274671
:100B5000F94A0121039400E0044316F8013F203BC9
:100B600001FA03F01042F7D130782A2811D06FF043
:100B70002F033078A0F13002092A16D8039A44F0E6
:100B8000020402EB820203EB42021044761C039043
:100B9000EFE758F8042B0392002A03DA504244F49A
:100BA0000054039044F00204761C30782E2816D1AD
:100BB00016F8010F44F004042A280DD06FF02F021C
:100BC0003078A0F13003092B09D807EB870302EB3B
:100BD0004303C718761CF3E758F8047B761C30787B
:100BE0006C280FD006DC4C2817D068280DD06A2856
:100BF00014D104E0742810D07A280FD10DE044F409
:100C000000140AE044F4801401E044F440147278C3
:100C1000824202D104F58014761C761C3078662856
:100C20000BD013DC582877D009DC002875D0452874
:100C3000F6D04628F4D047281AD193E118E063286B
:100C400035D0642879D0652812D18BE1702873D013
:100C500008DC6728F1D069286FD06E280DD06F2886
:100C600006D1ACE073282CD0752874D0782853D0E6
:100C70005246179990476D1C54E1C4F30250022864
:100C800009D003280DD0D8F8001004280DD00D602D
:100C900008F1040846E1D8F80010EA17C1E900524B
:100CA000F6E7D8F800100D80F2E70D70F0E718F8BD
:100CB000041B8DF8001000208DF80100EB46012088
:100CC00003E058F804BB4FF0FF3061074FF000011C
:100CD00002D40DE009F101018946B9420FDA8145DC
:100CE000F8DB1BF809100029F4D108E009F1010133
:100CF00089468142FADB1BF809100029F6D10398D6
:100D00005346A0EB090721463846179A00F080FAAF
:100D1000284400EB090507E044E008E10DE01BF87A
:100D2000010B524617999047B9F10109F7D2534682
:100D300021463846179AF2E039E00A21C4F30252FC
:100D40004FF0000B0091022A06D058F8040BC1178F
:100D5000032A09D00AE023E008F1070020F0070287
:100D6000F2E80201904605E000B2C117042A01D161
:100D700040B2C117002906DA0A460021404261EB61
:100D800002012D2202E0220504D52B228DF8042039
:100D9000012203E0E20701D02022F7E7914657E065
:100DA0000A2100E010214FF0000B00910BE0102110
:100DB0004FF0000B44F004040827009103E00820E2
:100DC0004FF0000B0090C4F30252022A05D058F8ED
:100DD000040B0021032A08D008E008F1070020F0E6
:100DE0000702F2E80201904603E080B2042A00D133
:100DF000C0B24FF0000922072AD53278702A07D0F6
:100E0000DDF800C08CF0100C5CEA0B0C05D00EE095
:100E100040228DF80420012208E050EA010306D0A8
:100E200030238DF804308DF8052002229146009B76
:100E300083F0080353EA0B030AD150EA010201D1FF
:100E4000620705D530228DF804204FF001097F1E7E
:100E50003278582A04D039A20C920CAA02920BE0E4
:100E60003BA2F9E75B46009AFFF768FB0C9B9B5C93
:100E7000029A521E0292137050EA0102F2D10298B5
:100E800004A9081A00F1200B600702D524F480346D
:100E900000E001275F4502DDA7EB0B0000E000202A
:100EA00000EB0B01009003984944401A0390E003C3
:100EB00006D453462146179A039800F0A9F9054431
:100EC000002706E001A85246C05D179990476D1CA7
:100ED0007F1C4F45F6DBE0030CD553462146179A9D
:100EE000039800F095F9054404E030205246179924
:100EF00090476D1C0099481E00900029F5DC08E021
:100F00000298029952460078491C0291179990471D
:100F10006D1CBBF10001ABF1010BF1DC5BE100F0FA
:100F200065F90544761C307800287FF40DAE19B0C1
:100F30002846BDE8F08F0000092801003031323327
:100F40003435363738396162636465660000000005
:100F500030313233343536373839414243444546EF
:100F600000000000600700D4062708F1070020F009
:100F70000700F0E80223804603F0004C5FEA0C0013
:100F800001D097A009E0200501D596A005E0E00773
:100F900001D095A001E0AFF24C001390307823F01F
:100FA000004365280CD006DC452809D046281DD012
:100FB00047287FD13BE0662818D067287AD136E0F1
:100FC0000021112F01DB112000E0781CCDE9000188
:100FD00004A90CA8FFF7EEFCDDE90D010C9A4FF017
:100FE000000B07F10109109200914EE04FF0004014
:100FF0000097CDE9011004A90CA8FFF7DBFCDDE99F
:101000000D020C9B0F994FF0000B9146109300922C
:1010100011B9791C00EB0109B7EB090003D4C0F149
:10102000FF3B07F10109A9EB0700019042E0012F06
:1010300000DA01270021112F01DD112000E03846E0
:10104000CDE9000104A90CA8FFF7B4FCDDE90D010E
:101050000C9A00914FF0000BB946109221070FD463
:10106000009A4A4503DA914601E0A9F10109B9F174
:10107000010F05DD109AA9F10101515C3029F4D06E
:10108000B84202DA10F1040F03DA0121CDE90110B0
:1010900010E0002803DC8344A9EB000102E0411CBE
:1010A000494500DD8946A0EB0B00401C01904FF044
:1010B00000400290200705D40198484502DB4FF01C
:1010C000FF30019000208DF84B0002980DF14B0786
:1010D000B0F1004F25D002200C902B200D900298EB
:1010E00000280CDA404202902D200D9007E00A21E2
:1010F0000298FFF70DFA3031029007F8011D0C99A4
:10110000481E0C900029F2DC02980028EFD1791ECD
:101110000D980870307800F0200040F0450007F886
:10112000020D11A8C01BC01D02901398007800B1D9
:10113000012000EB0901019801EBE07102980144E4
:101140000398401A401E0390E00306D453462146FC
:10115000179A039800F05CF805441398007818B1CA
:101160005246179990476D1CE00323D553462146FC
:10117000179A039800F04CF805441BE0BBF1000FF0
:1011800007DB0098584504DD1098179910F80B00FC
:1011900001E0179930205246904701980BF1010B5E
:1011A000401E05F10105019004D12E2052461799E9
:1011B00090476D1CB9F10001A9F10109DEDC05E0E1
:1011C00017F8010B5246179990476D1C0299481E5B
:1011D00002900029F4DC53462146179A03989EE6B4
:1011E0002D0000002B000000200000002DE9F04140
:1011F000044600251E461746880404D405E03946F7
:101200002020B0476D1C641EF9D52846BDE8F0814A
:101210002DE9F041044600251E469046C80301D53D
:10122000302700E02027880404D505E041463846F1
:10123000B0476D1C641EF9D52846BDE8F08108B59D
:101240000021009102E00099491C009100EB80010F
:10125000009AB2EB410FF6D308BD816841F0080156
:10126000816000BF816801F008010029FAD181681E
:1012700041F00401816000BF816801F00401002990
:10128000FAD1704730B5012902D002291AD10CE0F9
:10129000C36A23F47003C362C36A541E4FF470051B
:1012A00005EA04542343C3620DE0836B23F4401327
:1012B0008363836B541E4FF4401505EA04542343A3
:1012C000836300E000BF00BF30BD21B1826842F4FB
:1012D0000062826003E0826822F4006282607047EC
:1012E00010B504461348204430B1B0F5806F0CD0DF
:1012F000B0F5C05F1BD111E040F2093000F034FBC3
:1013000040F2093000F020FB12E040F20A3000F019
:101310002BFB40F20A3000F017FB09E040F20F30DF
:1013200000F022FB40F20F3000F00EFB00E000BFA7
:1013300000BF10BD00DCFEBF816801F0010119B9DA
:10134000816841F001018160704772B101F00103D1
:101350001BB1836843F48013836001F0020393B1EF
:10136000836843F4004383600DE001F001031BB187
:10137000836823F48013836001F002031BB1836848
:1013800023F4004383607047012902D0022910D161
:1013900007E0836823F460238360836813438360DA
:1013A00008E0836823F4E043836083681343836029
:1013B00000E000BF00BF70470246002013680B40EA
:1013C00003B10120704700000549096821F470212C
:1013D000034A11601146096801431160704700001B
:1013E00004240140F0B51D4606290CDA436B01EBDD
:1013F00081071F26BE40B34301EB810602FA06F6C1
:101400003343436322E00C290EDA036B8E1F06EB95
:1014100086071F26BE40B3438E1F06EB860602FAE0
:1014200006F63343036311E010290FDAC36AA1F112
:101430000C0606EB86071F26BE40B343A1F10C063F
:1014400006EB860602FA06F63343C3620A2A0CDA72
:10145000046902EB42070726BE40B44302EB420692
:1014600005FA06F63443046111E0122A0FDAC46863
:10147000A2F10A0606EB46070726BE40B443A2F1D6
:101480000A0606EB460605FA06F63443C460F0BDCC
:101490000146C86C80B2704701F001021AB182683F
:1014A00042F48002826001F002021AB1826842F4C2
:1014B00000128260704700002DE9F84F82460AEB67
:1014C0008A0040F6FF7190FBF1F42046FEF7E8FF3A
:1014D00083465846FEF7EDFF80460022074BFEF795
:1014E00070FF06460022064BFEF7F9FE0446FEF7A3
:1014F000F3FF00900098BDE8F88F00000000E03F87
:1015000000408F400349086000BF02490968002974
:10151000FBD17047000000200448006820B1034858
:101520000068401E0149086070470000000000206C
:101530000149086070470000140401400146044856
:101540000068084008B1012070470020FCE7000057
:101550001404014070B504460D46E1B2054800F0A0
:1015600093FB00BF0721034800F0DFFB0028F9D000
:10157000204670BD0050004001617047F0B5044640
:1015800016460025002201F00F0501F0100707B1F3
:10159000354300201EE0012787401F40C7B1226865
:1015A0004FEA800C0F2707FA0CF7BA43870005FAB9
:1015B00007F73A43282904D1012787401F40676174
:1015C00005E0482903D1012787401F402761226099
:1015D000471CB8B20828DED3082022E00127874044
:1015E0001F40E7B16268A0F108074FEA870C0F2798
:1015F00007FA0CF7BA43A0F10807BF0005FA07F78E
:101600003A43282904D1012787401F40676105E03C
:10161000482903D1012787401F4027616260471C8A
:10162000B8B21028DAD3F0BDF0B50A460023002482
:101630000021002500F00046B6F1004F02D11D4EFA
:10164000F16901E01B4E7168C0F3034583B200F4F9
:101650004016B6F5401F08D121F07061154E76682E
:1016600026F07066134F7E6012E000F48016B6F527
:10167000801F06D1032606FA05F4A14341F07061EC
:1016800006E0460D360103FA06F6B14341F07061FB
:1016900022B1460D360103FA06F6314300F000464A
:1016A000B6F1004F02D1034EF16101E0014E7160CD
:1016B000F0BD00000000014010B50223032200210C
:1016C0001648FFF75BFF1648FFF70AFE0020FFF7FA
:1016D0007BFE00211248FFF7F8FD01221146104859
:1016E000FFF7D0FD0523012200210D48FFF77AFE08
:1016F0004FF4602201210A48FFF746FE01221146FD
:101700000748FFF722FE0648FFF716FE0120FFF705
:10171000F9FE0348FFF7A1FD10BD000000080140DD
:101720000024014010B501210648FFF7B5FE00BFB7
:1017300002210448FFF740FE0028F9D00148FFF7D6
:10174000A7FE10BD002401402DE9F0410446FFF73B
:10175000E9FF07463846FFF7AFFE206000BF3222A0
:10176000074908A0FFF706F92068FEF7A2FE054624
:101770002A460B460BA0FFF7FDF800BFBDE8F0813D
:10178000981D00085B4C584447423541314450484D
:10179000595F5052545D5B25735D5B2535645D2058
:1017A000000000004C75783A252E3266206C780DCA
:1017B0000A00000000F0B4F900F0EDF800F026F99E
:1017C00000F0E6F900F0E0F858210648FEF7D5FCF5
:1017D00007E004484830FFF7B7FF41F28830FFF7D1
:1017E00091FEF6E718000020034A0A400243034B2B
:1017F0001A60BFF34F8F704780FFFF1F08ED00E0B6
:101800002DE9F04F8BB00746002009903EA090E8EC
:10181000004CC068CDE905BECDF810A007900FF2CE
:10182000EC0ADAE9000ACDE9020A0FF2E00ADAE985
:10183000000ACDE9000A38484068C0F381000A90E8
:101840000A9820B1012804D0022829D103E03349A5
:1018500028E0334926E03048406800F48038B8F585
:10186000803F09D12E4C2C48406800F40039B9F56E
:10187000003F02D1641000E02A4C27484068C0F3C2
:1018800083422548406800F0006008B142F0100231
:101890000F2A01D2921C00E0521C04FB02F101E06D
:1018A0001E4900BF00BF1C484068C0F3031504A8D0
:1018B000465D21FA06F318484068C0F3022502A8E5
:1018C000465D23FA06FC14484068C0F3C2251DF8A3
:1018D000056023FA06F0089037B1012F06D0022FD9
:1018E00006D0032F0AD106E0099108E0099306E02B
:1018F000CDF824C003E00898099000E000BF00BFC5
:1019000009980BB0BDE8F08F000000000000000057
:1019100001020304060708090010024000127A00C1
:1019200040787D0100093D00064A02EB90110968EC
:1019300000F01F0301229A401143024B03EB901267
:101940001160704700100240064A02EB90110968CE
:1019500000F01F0301229A409143024B03EB9012C7
:101960001160704700100240064A02EB90110968AE
:1019700000F01F0301229A401143024B03EB901227
:10198000116070470010024010B5FFF795FE05206A
:10199000FFF7B8FD10BD10B54FF4C060FFF7C4FFEE
:1019A00040F21570FFF7C0FF40F21670FFF7BCFF62
:1019B00040F20170FFF7B8FF40F20960FFF7B4FF93
:1019C00040F20E60FFF7B0FF40F21170FFF7ACFF7E
:1019D00040F21370FFF7A8FF40F21470FFF7A4FF66
:1019E00040F20E70FFF7A0FF40F20260FFF79CFF8D
:1019F00040F20360FFF798FF40F20460FFF794FFA6
:101A000040F20560FFF790FF10BD000010B5012106
:101A10000B48FFF709FE1023032219460948FFF778
:101A2000ADFD2023032210210648FFF7A7FD10215A
:101A30000448FFF7A1FD20210248FFF79DFD10BDDE
:101A400000013000000C014008B500200021304AA0
:101A5000126842F480222E4B1A601A46126842F431
:101A600080321A6000BF401C294A126802F400311B
:101A700019B94FF6FF729042F5D1254A126802F467
:101A800000320AB900BFFEE7214A5268204B5A6073
:101A90001A4652685A601A46526842F480625A6086
:101AA0001A46526822F480325A601A46526842F44A
:101AB00080325A601A465268164B1A40144B5A60CC
:101AC0001A46526842F400225A601A46126842F0DE
:101AD00080721A6000BF0E4A126802F00072002A7B
:101AE000F9D00B4A52680092009A22F00302009249
:101AF000009A42F002020092054B009A5A6000BF21
:101B0000034A526802F00C02082AF9D108BD00000D
:101B100000100240FFFFC3F710B5FFF795FF10BD9F
:101B200010B5124800684FF47A71B0FBF1F4601EF2
:101B3000B0F1807F01D301200FE0601E4FF0E02163
:101B400048610F214FF0FF30FEF74CFE00204FF0B0
:101B5000E021886107200861002008B100BFFEE78E
:101B60000021481EFEF73EFE10BD000004000020CC
:101B7000CA43026170470246D06800EA0103106957
:101B8000084010B10BB1012070470020FCE70000B5
:101B900010B54FF48053032218211448FFF7EEFCD0
:101BA0000423032219461248FFF7E8FC114800F00D
:101BB0006FF84FF4E1310F4800F01EF800210D4896
:101BC00000F0E2F800210B4800F0CEF800210948AF
:101BD00000F0BAF80421074800F0BEF808210548D3
:101BE00000F0CAF8034800F09BF810BD0010014057
:101BF00000140140005000402DE9F04704460D4616
:101C00000027B846B94600261D49601A8C421CD0F0
:101C100006DC1C48204470B1B0F5806F1FD10FE086
:101C2000B0F5806F16D0B0F56C4F18D10320FFF7D8
:101C3000E7FD074614E00220FFF7E2FD07460FE04C
:101C40000220FFF7DDFD07460AE00220FFF7D8FD7E
:101C5000074605E00220FFF7D3FD074600E000BF7E
:101C600000BF07EB5500B0FBF5F64FF6F07006EA43
:101C7000000806F00F0948EA0900A060BDE8F087F7
:101C8000004C004000BCFFBFC1F308024260704737
:101C900010B504462049601A8C4228D006DC1F4843
:101CA000204490B1B0F5806F33D117E0B0F5806F6C
:101CB00026D0B0F56C4F2CD140F20E30FFF754FE19
:101CC00040F20E30FFF740FE24E040F21140FFF7F3
:101CD0004BFE40F21140FFF737FE1BE040F212408E
:101CE000FFF742FE40F21240FFF72EFE12E040F2F4
:101CF0001340FFF739FE40F21340FFF725FE09E0DD
:101D000040F21440FFF730FE40F21440FFF71CFE93
:101D100000E000BF00BF10BD004C004000BCFFBF92
:101D2000C16841F40051C160704710B5024602EB32
:101D30009110006801F01F040123A340184008B16E
:101D4000012010BD0020FCE7C26822F4C062C2601E
:101D5000C2680A43C26070470A460021C16821F088
:101D600004011143C1607047026922F440520261CC
:101D700002690A43026170470A460021C16821F0E6
:101D800008011143C1607047C26822F48052C260EA
:101D9000C2680A43C26070476C786467623561311B
:101DA000647068795F72756E5F6F6E6365000000C6
:101DB000D01D000800000020180000009409000851
:101DC000E81D00081800002058040000A4090008BD
:101DD0000000000000E1F505000000000000000028
:081DE0000000000000000000FB
:0400000508000131BD
:00000001FF
